:400000000080002011000000510700005107000008B5044B1A6803F53F5302331A6000F0B7FB00BFFA46004010B5054C237833B9044B13B10448AFF300800123237010BD15
:400040009881FF1F0000000084240000084B10B51BB108490848AFF300800848036803B910BD074B002BFBD0BDE81040184700BF000000009C81FF1F84240000C880FF1F12
:4000800000000000034A13889BB201339BB21380704700BFB481FF1F38B5404C0025404B227A53F82200C0F30900627A53F822103C4A02EA81210843A17A03EB8101C96ACA
:4000C000090501F4401101436160217C53F82100C0F30900617C53F8211002EA81210843A17C03EB8101C96A090501F440110143E160217E53F82110C1F30901607E53F815
:40010000200002EA80220A43A17E03EB8103DB6A1B0503F4401313436361012000F0A6FCE07900F0B3FBA07900F0B0FB607900F0ADFB207900F0AAFB284600F097FC01205B
:4001400000F094FC012000F091FCE07B00F09EFBA07B00F09BFB607B00F098FB207B00F095FB284600F082FC012000F07FFC012000F07CFCE07D00F089FBA07D00F086FB13
:40018000607D00F083FB207D00F080FB284600F06DFC012000F06AFC38BD00BFB481FF1FCC80FF1F00FC0F0008B5002301220C49682000F0CDFE00F099FF10F0020FFAD034
:4001C00000F0B0FF002307220649682000F026FF00F08CFF10F0010FFAD000F0A3FF08BDD081FF1FF881FF1F70B58EB03F4801F05DFC3F4C3F4DA279294601A801F08CFD7E
:4002000001A801F053FC3C4E304601F04FFC627902F01F02294601A801F07EFD01A801F045FC304601F042FC227902F03F02294601A801F071FD01A801F038FC2F4801F02C
:4002400035FCE37803F00703062B20D8DFE803F004080C1014181C00294801F027FC16E0284801F023FC12E0274801F01FFC0EE0264801F01BFC0AE0254801F017FC06E095
:40028000244801F013FC02E0234801F00FFC174801F00CFC164DAA78204C02F03F02214601A801F039FD01A801F000FC1C4E304601F0FCFB6A7802F07F02214601A801F022
:4002C0002BFD01A801F0F2FB304601F0EFFB2A7802F07F02214601A801F01EFD01A801F0E5FB0A2001F000FC0EB070BD88240000F881FF1F8C2400009024000094240000F2
:40030000982400009C240000A0240000A4240000A8240000AC240000B0240000B4240000B824000010B5044600F0ACFB054B1B889BB2A342FAD300F0B9FB0022014B1A804D
:4003400010BD00BFB481FF1F08B500F009FC414800F02EFC00F0D8FA01F0A6FB00F07CFC00F076FB01F00AFA642000F027FB01F019FA62B6384B0A221A725A721A745A7422
:400380001A765A7603229A729A749A76FFF784FE4FF47A70FFF7C6FF002308222F49682000F0D6FD00F0A2FE10F0020FFAD0FFF7FBFEFFF719FF012001F0FCF990B101F07D
:4003C00011FA0028B8BF4042C0B2254B18701D2801D81E221A70224B1B78F02B02D9F0221F4B1A701F4C217801F07F011E4B83FB01029210154602EB820250000A1A1649E3
:400400000A724D72607800F07F0083FB00529210164602EB82025500421B0A744E74A27802F03F0283FB02039B101C4603EB83035800131A0B764C7601238B728B748B76CF
:40044000074B187800F0BAFAFFF726FE1420FFF769FFACE785000000B481FF1F0881FF1F0182FF1FF881FF1F67666666FEE700BFF0B40022174611E050F82760F3B226F025
:40048000FF0608E001EB420511F812406D78A5550132013BDBB2002BF4D101371B2FEBD9F0BC70470A4B1B78DBB203F00701094A11701B09013213708022074B1A70082386
:4004C000064A1370583213704422054B1A707047CF0100496E5800401D510040005B00407658004008B50A46002101F09EFB08BD08B501F08FFB08BD38B50024314B1C800C
:40050000502202331A70012202331A801C2202331A70032502331D80182202331A70042229492A48FFF7E4FF0222294B1A7008224FF040231A7003F500731D70254B1B7852
:40054000DBB225490B70254B1A8041F25122023B1A8019250CE0224B1B7803F0010343EA440404F003044FF4F07001F0ADFA013D0DB1032CEFD115B90320FFF777FF194B06
:400580004FF480721A8007221A70002216490A704820023108701A700222033B1A7004220A331A70114A137843F007031370013A137843F001031370013A137843F08003A6
:4005C000137038BD8040004088030048004100400043004008010049A146004022420040254200400440004006400040A2430040012807D8044B53F820201844017A137875
:400600000B431370704700BFBC240000012808D8044B53F820201844017A137823EA010313707047BC24000038B572B6364A137843F00403137000240BE0344863001A1925
:40064000510001440A46098AD068FFF74BFF0134E4B2092CF1D900240BE02C49A3001819420088188022C16C806CFFF741FF0134E4B2002CF1D026494FF09040FFF7F8FE72
:400680000A25244B1D70244A137843F0020313701032137843F002031370204C237843F040032370A2F58632513A137843F01003137008221A491B48FFF71AFF2A461A49C3
:4006C0001A48FFF715FF082219491A48FFF710FF082219491948FFF70BFF194A137843F008031370174D61232B70FFF705FF81232B700122144B1A70FFF7D4FE0E222146D8
:400700001248FFF7F5FE38BDE8460040BC240000700000488358004003500140A043004064030048025100406C030048C0510040780300481251004080030048225100407B
:40074000224300400048004004000840B043004008B501F033FA03680C2B00D1FEE7FEE708B5094B1A681044084BC31A802B02DC054B186005E001F021FA0C2303604FF08B
:40078000FF32104608BD00BF1081FF1F2882FF1F08B5104E104D16E029686B68AC68002204E051F8040B43F8040B0432A242F8D1E868002203E0002143F8041B043282427C
:4007C000F9D11035013E002EE6D101F0FDF9FFF7BBFDFEE7010000006825000008B5104A104B1A60104A136843F40073136000230AE0032B03D80D4A52F8231000E00C49C1
:400800000C4A42F8231001332F2BF2D90A4B1A780A4B1A70074A0A4B1A60FFF705FF08BD0004FA050CED00E014ED00E000000000510700000080FF1FBC760040C080FF1F74
:4008400008ED00E008B501F047F9094A137843F020031370013A137843F010031370023A137843F01003137001F03AF908BD00BF93640040014B1878704700BF62640040A8
:40088000014B1878704700BF60640040034B1B7813F0040FFAD0024B18707047626400404364004008B501E00A4B1B780A4B1B7813F0200FF8D101F00FF9084B1A7842F02F
:4008C00001021A701A7802F0FE021A7001F008F908BD00BF53640040606400409364004008B50F22064B1A70FFF7DCFFFFF7C2FFFFF7C6FF0023034A1370023A137008BD32
:40090000836400408264004008B5054B1B7823B9FFF7E6FF0122024B1A70FFF793FF08BDD281FF1F01BE704708B5034B1B7A00FB03F001F0C9F808BD1481FF1F70B50446BE
:400940000E46074B1D681F2802D90020FFF7EAFF04F01F04103455F8240045F8246070BD08ED00E038B504460D46072902D90020FFF7D8FF1F2C02D90020FFF7D3FF04F018
:400980001F0000F1604000F564406D01EDB2057038BD00BF024A137843F080031370704771640040014B1870704700BF01640040014B1870704700BF41640040014B1870EA
:4009C000704700BF21640040014B1870704700BF81640040014B1878704700BF61640040014B1878704700BF5164004008B501E0FFF7F6FFFFF7EEFF10F0100FF8D108BD96
:400A000010B5114A137803F0C00343F0090313700E4C237843F001032370FF20FFF7C2FFFF20FFF7C5FF9620FFF7C8FF0020FFF7CBFF01F051F8237843F01003237001F033
:400A40004FF8FFF7D3FF10BD716400409164004008B5054B1B7823B9FFF7D2FF0122024B1A70FFF797FF08BDD381FF1F044A137803F0F703C00000F0080018431070704740
:400A800020510040084A137843F0010313701032137843F00103137002F64D32137843F001031370704700BFA3430040084A137803F0FE031370A2F65D32137803F0FE0315
:400AC00013701032137803F0FE031370704700BF004F0040014B1870704700BF034F0040014B1880704700BF044F0040014B1880704700BF064F004008B5164A137803F0D7
:400B0000010313700232137803F0FC031370124B1A7802F0CF021A701A7842F030021A701A7802F0F0021A701A7842F00F021A700A4A137843F00103137045F6BF50FFF706
:400B4000CFFF45F6BF50FFF7D1FF0020FFF7C2FF08BD00BF004F00400B4F0040014F004008B5054B1B7823B9FFF7C6FF0122024B1A70FFF787FF08BDD481FF1F014B1B68CF
:400B80001864704708ED00E04001C0B2014B1870704700BF00E400E00122014B1A60704700E100E00122014B1A60704780E100E010B50446FFF7F6FF2046FFF7DFFF0720CF
:400BC000FFF7E2FFFFF7E8FF10BD00BF38B50222114B1A7081220E3B1A70082202331A700F2511331D70002401331C704FF400420A4B1A6007212846FFF7B4FE0849284625
:400C0000FFF79CFE1022074B1A70074B1C70074B1C70074B1C7038BDD649004080E100E0810C00000A82FF1F0E82FF1F1082FF1F0C82FF1F08B500F04FFF064A137843F09D
:400C4000040313701032137843F00403137000F047FF08BDA543004008B5074B1B7823B9FFF7B4FF0122044B1A70FFF7E3FF4FF40042024B1A6008BDD581FF1F00E100E0FC
:400C800038B5A54B1C78A54B1B7813F0400F00F03A81E4B214F0010F00F01D819F4B1B78453B052B00F21481DFE813F006008200120112010600DF0004F0DF0504F00A0420
:400CC000082C42D1954B1B78DBB2452B35D1944B1B7813F0FF0F10D0924B1B681B78DBB2914A137004228C4B1A7001228F4B1A7046228A4B1A702C46EDE08D4B1B7813F074
:400D0000020F0DD08B4A137843F00A0313706022824B1A704FF40042874B1A602C46DAE0864A137843F0100313701022844B1A700422023B1A702C46CDE00022764B1A70A4
:400D40004A22764B1A702C46C5E00A2C2BD1794A137843F0A0031370754B1B7813F0020F14D06E4B1B7813F0080F01D0092300E00A23704A11780B4313706022674B1A703F
:400D80004FF400426C4B1A602C46A4E06B4A137843F0100313701022694B1A700422023B1A702C4697E00020FFF7BCFD2C4692E014F0020F36D15D4B1A78D2B2584B1B7875
:400DC000DBB29A4210D2594A1378DBB255490968CB5CDBB254490B7004214F4B197013780133DBB2137076E0514B1B7813F0020F0CD0504A137843F00A0313706022474B8A
:400E00001A704FF400424C4B1A6064E04B4A137843F0100313701022494B1A700422023B1A7058E0424B1B7813F0020F0CD0414A137843F09A0313706022384B1A704FF4A5
:400E400000423D4B1A6046E03C4A137843F01003137010223A4B1A700422023B1A70354A137843F09003137035E0364A1378DBB2354908682C490978C9B2C15413780133CD
:400E8000DBB213701278D2B2304B1B78DBB29A4203D21022204B1A701DE0254B1B7813F0020F0CD0234A137843F00903137060221A4B1A704FF400421F4B1A600BE01F4AC9
:400EC000137843F0100313700022134B1A7002E00020FFF727FD14F0200F1CD00F4B1B7813F0080F01D0012300E00223114A11780B431370114A137803F0EF031370102223
:400F0000064B1A7038BD054B1B7813F0100F02D11022024B1A7038BDD74900400A82FF1F0F82FF1F1482FF1FD84900400C82FF1F0D82FF1F0E82FF1F80E100E0D649004096
:400F4000D94900401082FF1F1882FF1F1C82FF1F002948D070B40C4626490978C9B2102906D12549097811F0080F11D1002112E020490978C9B260290CD14FF400451F4902
:400F80000D601F4D297801F0F7012970002102E0012100E0022149BB4526164D2E700026184D2E70184D2A70184A1460184A1370134C227802F0FD0222704200D2B215481B
:400FC000027013F0010F06D012220B4B1A700422023B1A7002E00122074B1A704FF400420D4B1A6002E0022108467047084670BC704700BF0A82FF1FD949004080E200E015
:401000000E82FF1F0C82FF1F0F82FF1F1482FF1F0D82FF1FD849004000E100E000294AD070B40C4627490978C9B2102906D12649097811F0080F11D1002112E02149097807
:40104000C9B260290CD14FF4004520490D60204D297801F0F7012970002102E0012100E0022159BB4926174D2E700026194D2E70194D2A70194A1460194A1370144C227813
:4010800002F0FE0222704200D2B242F001021548027013F0010F06D012220B4B1A700422023B1A7002E00122074B1A704FF400420D4B1A6002E0022108467047084670BC3C
:4010C000704700BF0A82FF1FD949004080E200E00E82FF1F1082FF1F1C82FF1F1882FF1F0D82FF1FD849004000E100E04FF40042084B1A60084B1878C0B2084B1B7813F0FB
:40110000400F01D040F004004FF40042044B1A60704700BF80E100E00E82FF1F0A82FF1F00E100E04FF40043044A1360044A107800211170034A1360704700BF80E100E007
:401140000E82FF1F00E100E038B59DF81040651EEDB2032D51D8013809282ED8DFE800F0052D2D052D2D0F192D230F2B03D92548007840B222E02448007840B21EE00F2B59
:4011800003D92248007840B218E02148007840B214E00F2B03D91F48007840B20EE01E48007840B20AE00F2B03D91C48007840B204E01B48007840B200E0002001EB40115F
:4011C00001FB02F2D20B91B20D2B0BD8C3F10E0192B20A4191B2621E124800EB82020133937005E0631E0F4A02EB83030F229A70013C0C4B23F8241038BD0020FFF792FBC7
:4012000038BD00BF180100491C010049190100491D0100491A0100491E0100491B0100491F010049D881FF1FF8B5074600F054FC06460D4D2B7843F003032B700B4C23780E
:4012400043F0030323700A4B1F700320FFF76CFB2B7803F0FC032B70237803F0FC032370304600F03DFCF8BDF8460040F946004092580040F8B504460022C04B1A74012898
:401280005BD13822BE4B1A70042202331A70062201331A70002501331D7001331D700F2201331A7002331D7001331D7001331D7001260A331E70142203F527631A70052710
:4012C00001331F70162201331A7001331D70442203331A70482201331A7001331E7002331E70112201331A70192201331A70972201331A705220FFF797FF5822A14B1A7052
:4013000001331D7005331F70022201331A7001331D7001331D70284600F0B2FA33229A4B1A603146384600F0CFFA3146952000F04FFB96491D20FFF701FB022C5DD138222B
:401340008F4B1A70042202331A70062201331A70002501331D7001331D703F2201331A7002331D7001331D7001331D7001260A331E70502203F527631A70272201331A70BD
:401380002C2201331A7001331D70552203331A705A2201331A70052701331F7002331E70112201331A70192201331A70972201331A704420FFF738FF5822724B1A70013356
:4013C0001D7005331F70022201331A7001331D7001331D70284600F053FA4FF47A426A4B1A603146384600F06FFA3146252000F0EFFA67491D20FFF7A1FA032C5DD1382244
:401400005F4B1A70042202331A70062201331A70002501331D7001331D703F2201331A7002331D7001331D7001331D7001260A331E70502203F527631A70272201331A702C
:401440002C2201331A7001331D70552203331A705A2201331A70052701331F7002331E70112201331A70192201331A70972201331A704420FFF7D8FE5822424B1A70013326
:401480001D7005331F70022201331A7001331D7001331D70284600F0F3F94FF47A423A4B1A603146384600F00FFA3146252000F08FFA38491D20FFF741FA042C5DD1382262
:4014C0002F4B1A70042202331A70062201331A70002401331C7001331C703F2201331A7002331C7001331C7001331C7001250A331D70502203F527631A70272201331A70A4
:401500002C2201331A7001331C70552203331A705A2201331A70052601331E7002331D70112201331A70192201331A70972201331A704420FFF778FE5822124B1A700133F9
:401540001C7005331E70022201331A7001331C7001331C70204600F093F94FF47A420A4B1A602946304600F0AFF92946252000F02FFA09491D20FFF7E1F9F8BDD881FF1F32
:40158000004E0040945800402082FF1F5118000055180000591800005D1800002DE9F04182B0394D4FF0010885F80080374E00247474102000F076F9102000F0F7F9072159
:4015C0001D20FFF7CFF90427314B1F7001331C7007331C702F4A137843F0180313702E4B1C7003F2F5231C7001331C700A22A3F209331A7001331C7002331C70122205338D
:401600001A70132201331A7004331C701422A3F68C231A70CDF8008008234FF4004248F66B510220FFF790FD0223009310234FF4004249F2DA012046FFF786FD03230093B0
:4016400010234FF4004249F2DA012046FFF77CFD009710234FF4004249F2DA012046FFF773FD2B78013B06EB83039A780B4B1A702B78013B36F82320094B1A802878FFF77A
:40168000F9FD02B0BDE8F0812481FF1FD881FF1F96580040075B0040935800400E4E00400C4E004070B500F017FA06462A4B1B782A4B1A7842F001021A701A7842F01002EB
:4016C0001A7010331A7842F001021A701A7842F010021A70224D2B7843F002032B70214C237843F0020323701F4A137843F0030313700320FFF718F92B7803F0FD032B70A9
:40170000237803F0FD032370184A137843F0060313707A22164B1A70164A137843F0010313701032137843F0010313700F3A137843F0010313701032137843F00103137014
:401740004FF000530C4A1360A2F5C0721360304600F0C6F970BD00BF2481FF1FAA430040F8460040F9460040915800407758004082580040A143004080E200E008B5084B0C
:401780009B7C4BB9064BDB7C13F0FF0F01D1FFF705FF0122024B9A74FFF784FF08BD00BFD881FF1F024A137843F0010313707047004E0040094B1B7C13F0FF0F03D0074BA0
:4017C0005B7CDBB203E0064B1B7803F00103012B01D00028EED01846704700BFD881FF1F014E0040154B1B7803F00303012B07D8134B1888023B1B889BB243EA004013E088
:40180000022B0AD10E4B1888023B1B7843EA00430C4A107843EA002006E00B4B188883B2074A108843EA0040084B1B7C13F0FF0F02D00022054B5A74704700BF144E0040B0
:40184000124E0040114E0040104E0040D881FF1F704700BF704700BF704700BF704700BF10B5002404E02046FEF7D0FE0134E4B2012CF8D9FF22014B1A7010BD2581FF1FF5
:4018800010B50446FFF7ECFF2046FEF7B1FE014B1C7010BD2581FF1F014B188880B2704780400040034B1A7800F0F80010431870704700BF82400040024B187800F0070001
:4018C000704700BF8240004070B505460E46FFF7F3FF0446FFF7E0FFA84256D02B4B1B7803F0010294B900B185B938B9284B1D80284A137803F0BF03137070BD254A1378FD
:4019000043F040031370224B1D8070BD22B3002321490B7001240F310C7004310B700C390B7803F07F030B701A4B1B7813F0080F00D08DB9194B18800721013B1970164BDF
:401940001B7813F0010FFAD110490B7803F0FE030B700021104B19700C4B1B7813F0010F0DD00E4B1D800EB1032200E001220A4B1A70094B1B7813F0010FFAD170BD044BCF
:401980001D8002490B7813430B7070BDA243004080400040824000400140004002400040014B188880B2704700410040034B1A7800F0F80010431870704700BF02410040A2
:4019C000024B187800F00700704700BF0241004070B505460E46FFF7F3FF0446FFF7E0FFA84256D02B4B1B7803F0010294B900B185B938B9284B1D80284A137803F0BF0351
:401A0000137070BD254A137843F040031370224B1D8070BD22B3002321490B70012413310C7004390B7008390B7803F07F030B701A4B1B7813F0080F00D08DB9194B18807A
:401A40000721013B1970164B1B7813F0010FFAD110490B7803F0FE030B700021104B19700C4B1B7813F0010F0DD00E4B1D800EB1032200E001220A4B1A70094B1B7813F0D7
:401A8000010FFAD170BD044B1D8002490B7813430B7070BDA143004000410040024100400140004002400040704700BF38B505460078012404E000F017F8285D0134E4B2BD
:401AC0000028F8D138BD00BF0230800803D000BF01380046FCD17047EFF3108072B6704780F31088704700BFFEB5494652465B460EB40746244909688A46244A1268244894
:401B0000022100F047F8030020480068C018204900F040F8143883460121C9430C4601250026FFF7D9FF814651460B7823400B7058460130FFF7C8FF3800F04028400B78CA
:401B4000234003430B705846FFF7BEFF0136072EF2D9002001300138013001200B78234003430B7058460430FFF7AEFF4846FFF7B7FF00BF00BF00BF0EBC894692469B46F8
:401B8000FEBD00BFAFF300802881FF1F2081FF1F00C20100002902D0B0FBF1F0704708B14FF0FF3000F008B80029F8D00246B0FBF1F000FB11217047704700BF014B186840
:401BC000704700BF9481FF1F0E4B70B51E460E4C0025E41AA410A54204D056F8253098470135F8E700F0AEFC084B094C1E46E41AA4100025A54204D056F8253098470135E7
:401C0000F8E770BD5025000050250000502500005825000010B5431E0A44914204D011F8014B03F8014FF8E710BD03460244934202D003F8011BFAE77047000070B5CD1C62
:401C400025F0030508350C2D38BF0C25002D064601DBA94202D90C23336046E000F080F8234B1C681A462146A1B10B685B1B0ED40B2B03D90B60CC18CD501EE08C420BBF54
:401C800063684B681360636018BF0C4615E00C464968E9E7174C23681BB9304600F02CF820602946304600F027F8431C18D0C41C24F00304A0420DD12560304600F051F889
:401CC00004F10B00231D20F00700C31A0ED05A42E25070BD211A304600F00EF80130EBD10C233360304600F03CF8002070BD00BFF481FF1FF081FF1F38B5064C002305460C
:401D000008462360FEF72CFD431C02D1236803B12B6038BD2482FF1F0EB400B54FF402719CB0ADF814106FF00041049107914FF6FF711DAB02900690084853F8042BADF8DC
:401D40001610006802A9019300F066F8029B00221A701CB05DF804EB03B070479481FF1F704770472DE9F0478E6882469E420C46914698463ED88A8912F4906F3AD025682D
:401D8000096902236F1A656905EB450595FBF3F57B1C43449D4238BF1D4653050FD52946FFF74CFF064698B13A462169FFF732FFA38923F4906343F08003A38113E02A4607
:401DC00000F030FB064670B92169504600F0DEFA0C23CAF80030A3894FF0FF3043F04003A381BDE8F08726613E44266046466561ED1BA560464528BF46464946324620687F
:401E000000F0A8FAA36800209B1BA36023681E442660BDE8F08700002DE9F04F9DB003938B8980461C060D4616460DD50B695BB94021FFF703FF2860286118B90C23C8F826
:401E40000030CDE040236B610023099320238DF82930DFF89CB130238DF82A3037463C4614F8013B1BB9B7EB060910D003E0252BF9D02746F3E74B46324629464046FFF73D
:401E800071FF013000F0A780099B4B4409933B78002B00F0A08000234FF0FF3204930793059206938DF853301A930126052221784E4800F041FA671C049B38B14B4A3C463A
:401EC000801A06FA00F018430490EFE7D90644BF20228DF853201A0744BF2B228DF8532022782A2A03D0079A00210A200BE0039A111D12680391002A10DA524243F00200C0
:401F0000079204900BE027463B780134303B092B03D800FB02320121F5E701B107923B782E2B1ED17B782A2B0AD1039B02371A1D1B680392002BB8BF4FF0FF33059310E063
:401F4000002319460593781C0A2407463A780130303A092A03D804FB01210123F5E703B1059103223978224800F0E6F940B14023CBEB000003FA00F0049B013718430490A6
:401F8000397806221B487E1C8DF8281000F0D4F988B1194B33B9039B073323F007030833039314E003AB00932A46144B04A94046AFF3008007E003AB00932A460F4B04A98A
:401FC000404600F093F8B0F1FF3F824603D0099B5344099342E7AB895B0601D4099801E04FF0FF301DB0BDE8F08F00BF10250000162500001A25000000000000651D00002B
:402000002DE9F04791461F460A698B6806469342B8BF1346C9F8003091F843200C46DDF8208012B10133C9F800302368990642BFD9F800300233C9F80030256815F0060545
:4020400010D104F1190A07E00123524639463046C04701301AD00135E368D9F800209B1A9D42F1DB94F843302268003318BF012392060FD5E118302081F843005A1C94F8A1
:4020800045102244023382F8431003E04FF0FF30BDE8F08704F1430239463046C0470130F4D02268D9F80050E36802F00602042A08BF5D1B2269A3680CBF25EAE57500257F
:4020C0009342C4BF9B1AED184FF000091A344D4509D00123224639463046C0470130D5D009F10109F3E70020BDE8F0872DE9F04317460A7E85B06E2A984606460C460C9B37
:4021000001F1430E00F0AE8011D8632A22D009D8002A00F0BB80582A40F0CA8081F84520834955E0642A1ED0692A1CD0C0E0732A00F0B08009D86F2A2ED0702A40F0B880F3
:402140000A6842F020020A603EE0752A24D0782A3AD0ADE01A6801F14205111D1960136884F84230A8E021681A6811F0800F02D0111D196008E011F0400F02F10401196035
:4021800002D0B2F9003000E01368002B3CDA2D225B4284F8432037E021681A6811F0800F02D0111D196007E011F0400F02F10401196001D0138800E01368227E5C496F2A93
:4021C00014BF0A2208221BE078225A4984F845202268186812F0800F00F104051D6003D1550601D5038800E00368D00744BF42F0200222601BB9226822F0200222601022BA
:40220000002084F8430001E049490A226568002DA56008DB206820F0040020602BB9002D7DD175460CE0002B79D07546B3FBF2F002FB1033CB5C05F8013D03460028F5D184
:40224000082A0BD12368DA0708D5236962689A42DEBF302305F8013C05F1FF35C5EB0E0323612EE008681A6810F0800F496903D0101D1860136808E010F0400F02F10400DA
:402280001860136801D0198000E0196000232361754616E01A68111D1960156800216268284600F049F808B1401B6060636804E004F1420584F8422001232361002384F8FC
:4022C0004330CDF800803B4603AA21463046FFF797FE013002D14FF0FF3026E023692A4639463046C0470130F5D023689B0710D5002504F1190907E001234A46394630464C
:40230000C0470130E7D00135E368039A9B1A9D42F2DBE068039B9842B8BF184605E00B7804F1420584F842308AE705B0BDE8F083212500003225000010B5C9B202449042D5
:40234000034605D01C7801308C42F8D1184610BD002010BD884210B501EB020301D8421E0BE09842FBD28118D21AD34204D013F8014D01F8014DF8E710BD994204D011F80E
:40238000014B02F8014FF8E710BD000038B50546002944D051F8043C0C1F002BB8BFE418FFF7DEFC1E4A1368114613B96360146030E0A3420DD92268A018834201BF1868E5
:4023C0005B681218226063600C6023E0A24203D813465A68002AF9D118681918A1420BD12168014458188242196013D110685268014419605A600DE002D90C232B6009E08A
:4024000021686018824201BF106852680918216062605C602846BDE83840FFF7A2BC38BDF481FF1FF8B5074615460E4621B91146BDE8F840FFF702BC1AB9FFF7A7FF284616
:40244000F8BD00F015F885420ED929463846FFF7F5FB044650B131462A46FFF7DBFB31463846FFF793FF01E03046F8BD2046F8BD51F8040C0028BEBF091851F8043CC01807
:4024800004387047000000000A000000257500002D000000200A000053554E004D4F4E005455450057454E00544845004652490053415400256400003A000000035B00406B
:4024C0002443004040000000C84900401900004F00400C00305100404000F0510040100000000140800200030140000D00140140000800400140000A004C01400002005083
:402500000140200080020140E402004880004300232D302B2000686C4C0065666745464700303132333435363738394142434445460030313233343536373839616263645E
:4025400065660000F8B500BFF8BC08BC9E4670474D000000DD070000F8B500BFF8BC08BC9E4670472900000078250000C880FF1FD0000000900000000000000001000000D4
:4025800002000000040000000800000010000000200000004000000080000000000100000002000000000000010000000200000003000000000000000000051002211019B3
:4025C0002882FF1F0000E02EC05D00001800000000366E0101FF0000675000400C000000070000000000000000000000000000000000000000000000000000000000000021
:40260000000000000E250000000000000000000000000000000000000000000000000000000000000000000000000000000000000000000000000000000000000000000067
:40264000000000003481FF1F000000000000000000000000000000000000000000000000000000000000000000000000000000000000000000000000000000000000000087
:40268000000000000000000000000000000000000000000000000000000000000000000000000000000000000000000000000000000000000000000000000000000000001A
:4026C00000000000000000000000000000000000000000000000000000000000000000000000000000000000000000000000000000000000000000000000000000000000DA
:402700000000000000000000000000000000000000000000000000000000000000000000000000000000000000000000000000000000000000000000000000000000000099
:402740000000000000000000000000000000000000000000000000000000000000000000000000000000000000000000000000000000000000000000000000000000000059
:020000040003F7
:0200000480007A
:40000000024F004004520040026400405D00014033010140040201403D03014003050140010B0140010F0140041501400117014001190140041B0140054001400B410140B0
:400040000A420140014301400444014002450140044601400147014006480140104901400A4C0140074D0140025001400251014001800A4B00C0018060026403810D830FCD
:40008000008D0502070D09200A800C0D0E8010421208146215051614173A18021A0D1C8D1D131F0C20112222248D288D2C402D092F36307032803330340F350F388039086B
:4000C0003A223B203E445440580459045B045C225D205F01900E91019405960A97089A109C049E09A30DA610AC03AE04AF02B00FB101B308B410B502B704B802BE10C03075
:40010000C104C5D2C602C710C827C9FFCAFFCBFFCDA0CF04D018D280D405D804D904DA04DB04DC12DD11DF01E040E2C0E440E540E6C0E8C0EAC0ECC0EEC001410204030845
:4001400009080A450D080E800F0A102812811580170819041A441B831E88200423102608278A2B022E8231083280370A38043B10464047084D024F0856425D025E085F80A8
:40018000600261046220768082088B80C00BC2FFC4AFCA98CCCACE06D0C0D6D0D80EE28054095B045D205F01000801210240030209080B81102811401280180119241A40B0
:4001C0001B80200A215C22802A4230283280330239683A0140084108438248014908522753405C015D085E506004640268286941720373018C028D04900495C196019E05F8
:40020000A302A428A508A6A0B002B318C00FC20DC40FCA09CC0FCE0FD00FD208D6F0D814EE80AA12AC08B120E820E080E008E401EA01EC10E60CE60CE008E401EA01EC1013
:40024000302082018B01CC10E22003805F0866019A019B08A301A420B308C010D680D88010203E106302A301A420AF80C410CE20D640EC1096107F808B80DE01E0015310F0
:40028000D4044508B310D001E804A5082510800185089610C820E63012201640700175088220864090029908AA10B510C430DC80DE20E010E480EA801280132014407B10C5
:4002C0007F4082808440A508C40EDE03831087409780A710AB20B508EC0800060806000203C0000084020000042100D8013800C05698090260FC00030A021098009800027A
:4003000084130064079A38008400000080000400049A80000800020F7FE08013200000280000450034051000020EFBCD3DFFFFFF2200F0080400000000000224040404047C
:40034000222200010000C00040011011C0010011400140010000000000000000000000000000000001C0C000C0000000830000808300030000000000000B0B000000800062
:40038000000B0B0001000000950018010000000000000000000000000000000000000000000000000000000000000000000000000000000000000000000000000000000078
:4003C00000000000000000000000000000000000000000000000000000000000000000000000000000000000000000000000000000000000000000000000000000000000FD
:4004000000000000000000000000000000000000000000000000000000000000000000000000000000000000000000000000000000000000000000000000000000000000BC
:40044000000000000000000000000000000000000000000000000000000000000000000000000000000000000000000000000000000000000000000000000000000000007C
:40048000000000000000000000000000000000000000000000000000000000000000000000000000000000000000000000000000000000000000000000000000000000003C
:0200000490006A
:0400000000004005B7
:0200000490105A
:04000000BC90ACAF55
:0200000490303A
:02000000105599
:0200000490402A
:4000000000000000000000000000000000000000000000000000000000000000000000000000000000000000000000000000000000000000000000000000000000000000C0
:400040000000000000000000000000000000000000000000000000000000000000000000000000000000000000000000000000000000000000000000000000000000000080
:400080000000000000000000000000000000000000000000000000000000000000000000000000000000000000000000000000000000000000000000000000000000000040
:4000C0000000000000000000000000000000000000000000000000000000000000000000000000000000000000000000000000000000000000000000000000000000000000
:0200000490501A
:0C00000000012E16106900012E2420BE05
:00000001FF